S02B0000433A5C55736572735C6E786633383734345C446F63756D656E74735C4D43555870726573736F494467
S31520002000006C2120A12400205525002095090120BF
S3152000201051250020512500205125002048940120DB
S315200020200000000000000000000000005D250020E8
S315200020305125002000000000612500206525002094
S315200020406D2500207125002075250020792500208A
S315200020507D2500208125002085250020892500203A
S315200020608D250020912500209525002099250020EA
S315200020709D250020A1250020A5250020A92500209A
S31520002080AD25002051250020512500205125002076
S3152000209031130120B5250020B9250020BD250020BB
S315200020A0C1250020C5250020C9250020CD250020DA
S315200020B0D1250020D5250020D9250020DD2500208A
S315200020C0E1250020E5250020E9250020ED2500203A
S315200020D0F1250020F525002051250020512500203E
S315200020E05125002051250020512500205125002072
S315200020F05125002051250020512500205125002062
S315200021005125002051250020512500205125002051
S315200021105125002051250020512500205125002041
S31520002120F9250020FD250020012600200526002077
S315200021300926002051250020512500205125002068
S315200021405125002051250020512500205125002011
S315200021505125002051250020512500205125002001
S3152000216051250020512500205125002051250020F1
S3152000217051250020512500205125002051250020E1
S31520002180FD39012051250020512500205125002010
S3152000219051250020512500205125002051250020C1
S315200021A051250020512500200D2600201126002033
S315200021B051250020512500205125002051250020A1
S315200021C05125002051250020512500205125002091
S315200021D05125002051250020512500205125002081
S315200021E051250020512500205125002015260020AC
S315200021F019260020512500201D26002021260020FA
S3152000220051250020591701202526002029260020A7
S315200022105125002051250020512500205125002040
S315200022205125002051250020512500205125002030
S315200022305125002051250020512500205125002020
S315200022405125002051250020512500205125002010
S315200022505125002051250020512500205125002000
S3152000226051250020512500205125002051250020F0
S3152000227051250020512500205125002051250020E0
S3152000228051250020512500205125002051250020D0
S3152000229051250020512500205125002051250020C0
S315200022A02D2600203126002035260020512500200D
S315200022B05125002051250020512500206925002088
S315200022C05125002051250020512500205125002090
S315200022D05125002051250020512500205125002080
S315200022E05125002051250020512500205125002070
S315200022F05125002051250020512500205125002060
S31520002300512500205125002051250020512500204F
S31520002310512500205125002051250020512500203F
S31520002320512500205125002051250020512500202F
S31520002330512500205125002051250020512500201F
S31520002340512500205125002051250020512500200F
S3152000235051250020512500205125002051250020FF
S3152000236051250020512500205125002051250020EF
S3152000237051250020512500205125002051250020DF
S3152000238051250020512500205125002051250020CF
S3152000239051250020512500205125002051250020BF
S315200023A051250020512500205125002051250020AF
S315200023B0512500205125002051250020512500209F
S315200023C0512500205125002051250020512500208F
S315200023D0512500205125002051250020512500207F
S315200023E0512500205125002051250020512500206F
S315200023F0512500205125002051250020FFFFFFFFF9
S3152000240001F0FF01102A2BDB10F0070F08D010F87F
S31520002410013B013A8B422DD010F0070F42B3F6D183
S31520002420F0B441EA012141EA014122F007047FF09C
S3152000243000070023F0E80256083C85EA010586EAF3
S31520002440010685FA47F5A3FA87F586FA47F6A5FA2F
S3152000245087F68EB9EED1F0BC01F0FF0102F007023B
S3152000246032B110F8013B013A83EA010313B1F8D1E6
S315200024700020704701387047002D06BF35460338C7
S31520002480073815F0010F07D1013015F4807F02BF00
S31520002490013015F4C03F0130F0BC0138704700BF51
S315200024A072B61248124988604FF000024FF00003BE
S315200024B04FF000044FF000054FF000064FF00007E4
S315200024C0B846B946BA46BB46BC460A4885460A4877
S315200024D080470A4880470A48804762B64FF0000086
S315200024E04FF00001074A9047FEE700000020002039
S315200024F000ED00E0006C21209D2B0120CD3700202F
S3152000250039380020CD0B012072B60A480A490160ED
S315200025100A6882F30888094880470949094A0A4B0C
S315200025209A42BEBF51F8040B42F8040BF8E762B694
S315200025300648804708ED00E0002000209D2B012062
S3152000254024AE01200080202024882020CD0B0120CD
S31520002550FFF7FEBF3848004738480047384800474D
S315200025603848004738480047384800473848004729
S315200025703848004738480047384800473848004719
S315200025803848004738480047384800473848004709
S3152000259038480047384800473848004738480047F9
S315200025A038480047384800473848004738480047E9
S315200025B038480047384800473848004738480047D9
S315200025C038480047384800473848004738480047C9
S315200025D038480047384800473848004738480047B9
S315200025E038480047384800473848004738480047A9
S315200025F03848004738480047384800473848004799
S315200026003848004738480047384800473848004788
S315200026103848004738480047384800473848004778
S315200026203848004738480047384800473848004768
S31520002630384800473848004755250020950901208D
S315200026405D250020612500206525002069250020C4
S3152000265051250020512500205125002051250020FC
S3152000266051250020512500205125002051250020EC
S3152000267051250020512500205125002051250020DC
S3152000268051250020512500205125002051250020CC
S3152000269051250020712A0120912A0120B12A0120EA
S315200026A0D12A0120F12A0120112B0120312B0120D2
S315200026B0512B012051250020512500205125002095
S315200026C0512500206D260120A1260120D526012096
S315200026D009270120512500205125002051250020C1
S315200026E0512500205125002051250020512500206C
S315200026F0512500205125002051250020512500205C
S315200027009D890020B58900205125002051250020D3
S31520002710512500205125002051250020002A01D1D5
S3152000272001207047F0B41F46034603242340002BA4
S3152000273009D00424E31A017001300824E141013A4A
S3152000274026D0013BF7D1042A1ADB13D0002F11D053
S315200027500C460D460E46102A02DB72C0103AFAE7E6
S315200027600C2A02DB32C00C3AFAE7082A02DB12C036
S31520002770083AFAE7042A03DB01600430043AF9E751
S31520002780002A05D0017001300824E141013AF7D131
S31520002790F0BC00207047C04653B94AB9002908BF8B
S315200027A000281CBF4FF0FF314FF0FF3000F074B906
S315200027B0ADF1080C6DE904CE00F006F8DDF804E072
S315200027C0DDE9022304B070472DE9F047089D044651
S315200027D08E46002B4DD18A42944669D9B2FA82F2AE
S315200027E052B101FA02F3C2F1200120FA01F10CFAEA
S315200027F002FC41EA030E94404FEA1C48210CBEFB22
S31520002800F8F61FFA8CF708FB16E341EA034306FBAA
S3152000281007F199420AD91CEB030306F1FF3080F039
S315200028201F81994240F21C81023E63445B1AA4B286
S31520002830B3FBF8F008FB103344EA034400FB07F728
S31520002840A7420AD91CEB040400F1FF3380F00A8169
S31520002850A74240F207816444023840EA0640E41B5E
S3152000286000261DB1D4400023C5E900433146BDE80A
S31520002870F0878B4209D9002D00F0EF800026C5E9AC
S31520002880000130463146BDE8F087B3FA83F6002EC4
S315200028904AD18B4202D3824200F2F980841A61EB3C
S315200028A0030301209E46002DE0D0C5E9004EDDE75A
S315200028B002B9FFDEB2FA82F2002A40F09280A1EB42
S315200028C00C014FEA1C471FFA8CFE0126200CB1FB97
S315200028D0F7F307FB131140EA01410EFB03F0884290
S315200028E008D91CEB010103F1FF3802D2884200F21D
S315200028F0CB804346091AA4B2B1FBF7F007FB1011AF
S3152000290044EA01440EFB00FEA64508D91CEB04044C
S3152000291000F1FF3102D2A64500F2BB800846A4EBA7
S315200029200E0440EA03409CE7C6F12007B34022FA92
S3152000293007FC4CEA030C20FA07F401FA06F31C43C1
S31520002940F9404FEA1C4900FA06F3B1FBF9F8200CCE
S315200029501FFA8CFE09FB181140EA014108FB0EF014
S31520002960884202FA06F20BD91CEB010108F1FF3A64
S3152000297080F08880884240F28580A8F10208614470
S31520002980091AA4B2B1FBF9F009FB101144EA01417E
S3152000299000FB0EFE8E4508D91CEB010100F1FF3429
S315200029A06CD28E456AD90238614440EA0840A0FBC1
S315200029B00294A1EB0E01A142C846A64656D353D097
S315200029C05DB1B3EB080261EB0E0101FA07F722FABB
S315200029D006F3F1401F43C5E9007100263146BDE8E4
S315200029E0F087C2F12003D8400CFA02FC21FA03F347
S315200029F0914001434FEA1C471FFA8CFEB3FBF7F0C8
S31520002A0007FB10360B0C43EA064300FB0EF69E42EC
S31520002A1004FA02F408D91CEB030300F1FF382FD285
S31520002A209E422DD9023863449B1B89B2B3FBF7F62D
S31520002A3007FB163341EA034106FB0EF38B4208D906
S31520002A401CEB010106F1FF3816D28B4214D9023E47
S31520002A506144C91A46EA004638E72E46284605E765
S31520002A600646E3E61846F8E64B45A9D2B9EB020836
S31520002A7064EB0C0E0138A3E74646EAE7204694E7C6
S31520002A804046D1E7D0467BE7023B614432E73046F9
S31520002A9009E76444023842E7704700BF000000009F
S31520002AA02DE9F0410026DFF8788015F0A9FC0446D0
S31520002AB0454611203146184FE4FB005114A3D3E9B3
S31520002AC000232846FFF768FE42F2107C431E45008D
S31520002AD0314612483B60E4FB0C010DA3D3E90023E9
S31520002AE0FFF75AFE0138314628447860252008A38E
S31520002AF0D3E90023E4FB00814046FFF74DFE013871
S31520002B0005443046BD60BDE8F08100BFAFF30080CC
S31520002B1000CA9A3B00000000083621200065CD1D22
S31520002B2000CA9A3B000000002DE9F04F0F46016EC7
S31520002B3016463B4AC1F3C26185B0032E0546515C59
S31520002B40B3FBF1F24FF00003019244D101242EA1F0
S31520002B50D1E90001FFF720FE019A8046894600232D
S31520002B602BA1D1E90001FFF717FE8346B845019A4C
S31520002B7079F100033FD22B4B0134FF214FF0FF396F
S31520002B80A4FB034A4FF0000801910293002320463C
S31520002B9051460392FFF700FEB842039A71F10003F3
S31520002BA006D3C31B994582BF99468346CDF8048038
S31520002BB008F10108B8F5807F06D0029BE4184AF197
S31520002BC0000AB9F1000FE1D12846324601990FF0EB
S31520002BD035FB584615E010A1D1E90001FFF7DCFDD1
S31520002BE0019A8046894600230F483B210024FFF79F
S31520002BF0D3FD8346BAE72846324600210FF01EFB56
S31520002C00404605B0BDE8F08F0094357700000000FF
S31520002C1000CA64D63B00000000CA9A3B00000000B0
S31520002C203EAC012000CA9A3B0000CA9A2DE9F04F1B
S31520002C300D4689B01F46CB0949000446039300235D
S31520002C4001F01E010592079341EAD51A002800F0EB
S31520002C50FA8083684FEA8A1803EB8A1393F8386060
S31520002C6016F0010600F0F18090F89630A3B907F52A
S31520002C707F5307A83F33B3F5804F2CBF4FEA9339D4
S31520002C804FF0010915F0B0FB94F894C0CC4507D25B
S31520002C900226079815F0ADFB304609B0BDE8F08F47
S31520002CA04FF00009D4F810E004EB8A01CB46DEF899
S31520002CB00020B7F5804F02983B460192724628BF06
S31520002CC04FF480430497BBF1000F08BF1046DDF890
S31520002CD004E00CF1FF3CFF1A02904FF001005FFA6E
S31520002CE08CFC10604FF000005060059858449060AE
S31520002CF0906800F5805020F47F6020F00F00D060AF
S31520002D00D06800F580501061106900F58050506140
S31520002D10506900F580509061506863F31E40506002
S31520002D20D069D2F808A063F31E30CAF30B0AD0612B
S31520002D3020F0004020F47F6020F00F0040EA0A00D7
S31520002D40D06103D1506840F40040506050684FF085
S31520002D50800A9B446AF307005060486D00283BD0E8
S31520002D6002604A65002FA2D1019A84F894C022619C
S31520002D7015F00F021CD10399D1B1A16801EB08000F
S31520002D8090F83800800713D5049888B1C88E9842E9
S31520002D900ED951F80800C0F30A40B3FBF0FC00FB43
S31520002DA01C332BB951F8083067F35D7341F80830AE
S31520002DB0ED08012305F01005154303FA05F5B9F1D1
S31520002DC0000F21D16368D3F8B0212A4208D0079892
S31520002DD0002615F00EFB5FE7B1464A614A65C1E75A
S31520002DE0D3F8402142F48042C3F84021D3F8B811E9
S31520002DF0D3F840215204F3D5D3F840210D4222F4D2
S31520002E008042C3F84021E2D1A3689844029BC8F8C7
S31520002E1008300023C8F80C30BFF34F8F0C4A636884
S31520002E20C3F8B051D3F8B8112942D0D1013A03D111
S31520002E30079815F0DEFA2FE7D3F8BC112942C6D140
S31520002E40C3F8B051EEE7032626E7012624E700BFA4
S31520002E50809698002DE9FF4702EB4109002641EABA
S31520002E60C211054600EB8908DFF8B4A04FEA89199C
S31520002E70D8F81440CFB224F01F04CDE9016614B966
S31520002E8004B0BDE8F087019B3BB9A368A28B03EA97
S31520002E900A03C2F30B021343019363681A0638D45C
S31520002EA0E2696168C2F31233029AC1F30E415B1ADA
S31520002EB01344D8F854200293D8F8143093422BD1D7
S31520002EC0C8F814600122C8F85460AB684B449A6075
S31520002ED0DE6063681B0404D4D8F8143033F01F0373
S31520002EE009D101A928688DF80C708DF80D6012F0B3
S31520002EF045FECDE901662B696660236095F894301E
S31520002F002C61013385F89430D8F8144024F01F043E
S31520002F10B5E74FF0FF33CCE71B68C8F81430D8E785
S31520002F2000F0FFFF2E4BF7B5861E009303F50073C6
S31520002F3017460193F3B2012B4BD82A4A15781DB1B7
S31520002F405378002B47D101250124DFF8A0C02B465A
S31520002F5054559C24244A0CEB452C04FB0524C4F828
S31520002F600CC084F8970002A8DFF884C000EB860620
S31520002F700CEBC525A56056F8085CD5F840016560C0
S31520002F8040F00200C5F84001D5F8404114F0020493
S31520002F90FAD19C20D5F82461434306F01F0C16F085
S31520002FA0180F02EB030080F895C016D0D150D5F843
S31520002FB0A83123F00303C5F8A831D5F8A83143F08A
S31520002FC00203C5F8A83111F083FF3860204603B00C
S31520002FD0F0BD0620FBE70320F9E70120F7E700BF55
S31520002FE000002E40E0472120D8A5202000A0202048
S31520002FF000902020E8B1104B984213D10F4B0022AD
S315200030001A7043680020C3F84801D3F8402122F003
S315200030100102C3F84021D3F8402142F00202C3F84E
S31520003020402170479C33984202BF044B00225A70BD
S31520003030E7E70320704700BFD8A52020E0472120DE
S315200030402DE9F04F4FEAD10801F00F034C0085B06F
S3152000305008F01008002604F01E040F4648EA030371
S315200030604FF0010844EAD114054608FA03F8009601
S31520003070002800F08780684615F0B6F94FF0FF3338
S315200030800FFA84FE019605EB84040293626922F00E
S315200030901F0213469BB99B461E46DFF8EC909C46C2
S315200030A0AAB9BBF1000F00D00193AB6803EB8E1ECB
S315200030B00123CEF808300023CEF80C3051E0D97F1A
S315200030C041F08001D9771B6823F01F03E2E792F9CC
S315200030D01F00002841DA5068000627D443B99168BA
S315200030E04FF0010B938B01EA0901C3F30B030B434A
S315200030F06069616D88422BD1C4F814C0C4F854C0ED
S315200031005068010427D4606930F01F0108BF0126EA
S315200031102869C2F804C010602A6195F8942001320B
S3152000312085F89420626922F01F02B9E76868D0F812
S31520003130B4A14AEA080AC0F8B4A1D0F8B4A11AEAA0
S31520003140080FFAD1D0F8B8A11AEA080FEFD1C5E7CF
S3152000315000686061D4E70126DAE7BBF1000F00D0F2
S315200031600193009815F045F946B1002601A9286873
S315200031708DF80C708DF80D6012F000FD304605B00C
S31520003180BDE8F08F0326F9E700F0FFFF4B682DE935
S31520003190F04101338AB04FF0000406460F469046B0
S315200031A08DF80F40CDE9044400F0D7801AB90520E8
S315200031B00AB0BDE8F081956806210DF10F0212F0E4
S315200031C0B3FD397A002900F08B807B68082BEED17D
S315200031D03A68002AEBD053886B809388AB80D388DB
S315200031E0EB8050786870127812F01C0F2A7004D089
S315200031F02146304612F07AFDD9E712F060011CD143
S315200032000C280FD90520059B1BB1049B002B08BF5A
S31520003210052005AB024629463046009304AB12F042
S315200032200BFCC5E74E4B53F82040002CEAD005ABEB
S3152000323004AA29464046A047E5E7002B2FD01206D0
S315200032402DD420291CD10022012130460695079233
S3152000325006AA8DF82410089312F091FF089B059377
S31520003260079B04930028CDD1EB880021059A304690
S31520003270934238BF0593DDE9042312F0F5FC97E766
S315200032804029BFD1002213213046069507920122FC
S3152000329008938DF8242006AA12F0A0FFDEE7202945
S315200032A00FD10022012130460695079206AA8DF8F5
S315200032B02410089312F063FF089B0593079B049341
S315200032C0A1E740299ED10022132130460695079278
S315200032D0012208938DF8242006AA12F07FFFEBE73F
S315200032E09DF80F30032B0AD16B78052B7FF45FAF47
S315200032F005AB04AA2946404612F017FB58E77A6820
S31520003300002A3FF454AFEB88002B3FF450AF95F9D9
S3152000331000002B780028FFF64AAF03F06003202B2D
S315200033200BD13B6830468DF824100121089206AA5D
S315200033300793069512F023FF6BE7402B0BD13B68D2
S3152000334030468DF824101321089206AA0793069575
S3152000335012F044FF5DE705205BE7204628E700BF23
S31520003360FC8B012070B5124B86B08026054603AA39
S31520003370ADF80660CDE90331402301A9ADF804304C
S315200033800123ADF8083012F073FC044660B98DF8BD
S31520003390060003AA01A9284612F06AFC044618B1C1
S315200033A03146284612F083FC204606B070BD00BF89
S315200033B08D3100202DE9F347064689469046002A9E
S315200033C06BD00023394F01A8019315F00DF8BD6885
S315200033D01DB197F8D530B34207D0D7F8E030019821
S315200033E05BB197F8AD31B34259D10126019815F05A
S315200033F000F8304602B0BDE8F087003D18BF012531
S315200034004FF0D80A0AFB05FA07EB0A0484F8D560C0
S3152000341014F0EFFF0023C4F810902246994684F852
S31520003420D56084F8D43084F8D730013382F81C90E4
S31520003430102BC2E9059902F10C02F6D1B31E012B1D
S3152000344010D901A8CDF8049014F0CEFFD822019807
S31520003450062602FB0575C5F8089085F8D59014F068
S31520003460C8FFC6E7124B0AF1080230462146E36040
S31520003470D823C8F800403A4403FB0575EB681B685F
S315200034809847064628B1204612F0CEFBC8F8009091
S31520003490AFE7022385F8D630ABE70326A9E7002D50
S315200034A0AED0022614F0A5FFA3E700BF00A420207B
S315200034B0308C01202DE9F043037F87B004461BB9E9
S315200034C0012007B0BDE8F08342689268517999429D
S315200034D0F6D31268002AF3D003F100530C27013BE0
S315200034E002EBC30612F8335000239D42E8D907FBAE
S315200034F003F270688118825C032A49D10D7A002371
S315200035009D423BD80026CB786377002ED8D0002565
S315200035100120DFF880802F46DFF87C90A660337983
S31520003520AB42CED90623B1688DF808706B430135BE
S31520003530CA1810798DF80900CB5C20688DF8063002
S31520003540DB0951886FF00103ADF8041001A9527808
S3152000355018BFE3608DF8072003AA19BF84F82370EB
S315200035602761636184F824700ABFA761CDF80C90A7
S31520003570CDF80C80049412F07BFBD0E71A01486842
S3152000358000EB0316805CA27F9042BCD00133B7E7E4
S315200035900133AAE7ED5D0120CD5D012070B50A4C0F
S315200035A00E46154623685BB9214600F077F830B9F8
S315200035B023683BB1FF2366602077A3772C6070BD1C
S315200035C00220FCE70320FAE710A7202073B5002489
S315200035D0054601A80E46019414F006FF0A4B1A6808
S315200035E0954209D01A690198954204D014F001FF3A
S315200035F0042002B070BD012403EB0413019833604C
S3152000360014F0F7FE0020F4E738A7202073B5002435
S31520003610054601A80E46019414F0E6FE0C4B1A68E6
S3152000362012B19A7BAA420BD01A6912B19A7FAA428A
S3152000363005D0019814F0DDFE042002B070BD0124EF
S3152000364003EB04130198336014F0D3FE0020F4E753
S3152000365038A7202037B50024054601A8019414F088
S31520003660C3FE0D4A136813B1937BAB4209D013698D
S3152000367013B1937FAB420DD0019814F0BAFE03B07C
S3152000368030BD23460021180102EB03131150596067
S315200036909973F1E70123F5E738A72020002337B5F2
S315200036A0044601A801930D4614F09EFE0B4A1368AA
S315200036B013B1917BA1420AD0136913B1927FA24222
S315200036C005D0019814F095FE042003B030BD019872
S315200036D02B6014F08EFE0020F7E700BF38A72020CD
S315200036E02DE9F34705460C469046002A60D000296E
S315200036F05ED04B68002B5BD00023314F01A801938D
S3152000370014F072FE3B6813B1BA7BAA4205D03A691F
S31520003710019852B1BA7FAA424CD10124019814F0E3
S3152000372068FE204602B0BDE8F087003B18BF0123A3
S31520003730244A07EB03164FEA031902EBC303B573BA
S31520003740B36014F056FE746032461F492846FFF7D0
S3152000375031FE044638B157F8090012F065FA2846BA
S31520003760FFF778FFDDE782464FF00C0973685FFAB2
S315200037708AF11A7A8A4217D909FB01F7196839445E
S315200037808B681B79012B03D10A1D2846FFF706FFFC
S315200037907368196839448B681B7913B90A1D284642
S315200037A098470AF1010AE1E73368C8F80030B8E71C
S315200037B00424B6E7002BBBD0022414F01AFEB0E78F
S315200037C038A7202058A72020DD610120114B124A5E
S315200037D012499A60124B994209D1124A0021124B82
S315200037E09B1A73B91149124A521A72B97047114A73
S315200037F0D21A002AF1D013F8010B013A01F8010B75
S31520003800F7E7013B02F8011BEBE7013A01F8013B20
S31520003810EBE700BF00ED00E0002000200080202024
S3152000382024AE012000902020404B2120004C212056
S31520003830004C212048B60120114B4FF0FF32C3F82F
S315200038408020C3F88420C3F88820C3F88C20C3F8CE
S315200038509020C3F89420C3F89820C3F89C20C3F87E
S315200038608021C3F88421C3F88821C3F88C21C3F8AA
S315200038709021C3F89421C3F89821C3F89C2170475E
S3152000388000E100E00FB42DE9FF410AAB00250A272D
S31520003890302253F8041B4FF0780C0093474B0878DE
S315200038A028B9187004B0BDE8F04104B07047252847
S315200038B001F101067DD14C7804F0F70EBEF1640FBC
S315200038C001D0752C2CD10099081D00900868CDE9EF
S315200038D00155CDF80B5098B901218DF8042001AC83
S315200038E0481E03F1FF3E2044044614F801890EF8D1
S315200038F0018FA0EB04084145F7D80B44711CCEE795
S315200039000DF1040800210131B0FBF7FE07FB1E0470
S31520003910303408F8014B04467046092CF3D8DEE70C
S31520003920782C2FD1009901AC8DF80420081D8DF834
S3152000393005208DF80620009008688DF807208DF860
S3152000394008208DF809208DF80A208DF80B2078B9EB
S31520003950194603F109040DF10B001A7001F801CF85
S3152000396010F801E901F801EFA142F9D10A33C5E7C0
S3152000397000F00F010009092994BF3031573104F8AE
S31520003980011BE4E7632C06D10099081D0968009005
S3152000399003F8011BB2E7732C0BD10099081D0968A7
S315200039A00139009011F8010F0028A7D003F8010B68
S315200039B0F8E70E4603F8010BA0E700BFE2472120F7
S315200039C038B5084D0446284614F00EFD2368013309
S315200039D02360286814F00DFD2368002BFCD10120FC
S315200039E038BD00BF68A7202038B5064D04462846B6
S315200039F014F0FAFC2368013B23602868BDE83840B0
S31520003A0014F0F7BC68A72020014814F0EDBC00BFD5
S31520003A1068A72020014B186814F0EBBC68A720206B
S31520003A20013910B507292FD8DFE801F004162E2218
S31520003A30222E22145368013B03330BD8134B1868EC
S31520003A408369002B06DD90F81A34012B02D1183039
S31520003A50FFF7CAFF002018E053685A1E0332F9D830
S31520003A600A4A1068C3610123143000F8083CEFE7C6
S31520003A70064C00212068143012F009FC2068002131
S31520003A80183012F004FCE5E7052010BD6CA72020B5
S31520003A90012938B50C460FD1084D4FF47E7328689E
S31520003AA080F81A1400F120020221806812F04CFBE3
S31520003AB02B6883F81B4438BD0020FCE76CA7202028
S31520003AC059B9074B022118684FF47E7380F81C24DD
S31520003AD000F12002806812F037BB0020704700BF3B
S31520003AE06CA72020014B1860002070476CA720206F
S31520003AF0024B186000238360184670476CA720206D
S31520003B00087A20B9034B0B604C234B607047052085
S31520003B10704700BF1F872020024B00200B60122316
S31520003B204B6070470D872020087A20B9034B0B6025
S31520003B3029234B6070470520704700BFE48620206C
S31520003B40887A0E4B10B520B91A685B680A604B60FC
S31520003B5010BD9B680C891A8994420CD103280AD877
S31520003B601A6800B25B6852F8202053F820300020F3
S31520003B700A604B60ECE70520EAE700BF448020207E
S31520003B800229174B1748184930B516D10322F824B5
S31520003B9083F82020DC7783F8212083F8272083F8F8
S31520003BA0264083F828204FF47E73438003814FF408
S31520003BB000734B800B81002030BD4022002501245C
S31520003BC083F82050DA7783F8214083F8275083F84A
S31520003BD0262083F82840428002814A800A81EAE72B
S31520003BE0E4862020CC862020D8862020014B036026
S31520003BF000207047F93B0020436A5A89596882821F
S31520003C00DA68023A4260064A914206D11B7A012BB3
S31520003C1003D8044B03600020704742F2757070474A
S31520003C2053544D50713D00207FB5B0F85A200446BC
S31520003C30184E1301316803F470638D6843EA12232A
S31520003C40426AD0E91701A8470546F8B933681B69C7
S31520003C5033B9114B4FF4E971104A114810F040FA6C
S31520003C609847054690B904F11C001022616A01901C
S31520003C700CF002FA03A901980CF022FA039B626E5B
S31520003C809A420ABF074B42F27A752360284604B04F
S31520003C9070BD00BF548520202A950120C69501209D
S31520003CA055950120E53E0020F7B500F11C06044697
S31520003CB0416A102230461E4F0CF0DEF9B4F85A2025
S31520003CC039681301E06D8D68102103F4706343EAAF
S31520003CD01223626AA847054648B9E36D1033E365A7
S31520003CE0236E103B102B236604D9124B23602846E3
S31520003CF003B0F0BD0BB1104BF8E73B681B6933B935
S31520003D000E4B40F225210E4A0E4810F0E9F998474D
S31520003D1005460028EBD101A930460CF0D1F9626E98
S31520003D20019B9A4201D1084BE0E742F27A75DEE721
S31520003D3054852020A93C0020293C00202A950120DA
S31520003D40B595012055950120E53E0020D0E90132A8
S31520003D50934208D99B1A82664360044B0360012371
S31520003D6083600020704742F278707047E53E00205D
S31520003D70416A4A6808B582610A684368033A9A42EA
S31520003D8082600BD20B892BB10648FFF77BFD42F2EE
S31520003D90777008BDBDE80840FFF7D8BF42F27670BD
S31520003DA0F7E700BF6095012010B504461C3014F0DB
S31520003DB05AFA044A216E0020034B102998BF134655
S31520003DC0236010BD293C0020A93C0020034B1B6822
S31520003DD0D0E91812DB68C06D184700BF5485202033
S31520003DE0B0F85A301A0113F0010F02F4706242EA59
S31520003DF0132214BF08230423042A05D100F16002EC
S31520003E00C16D024809F038BD0420704700401F40AC
S31520003E10B0F85A309A070ED41A0102F4706242EAB8
S31520003E201322DB0715D5B2F5807F10D005DC082AD2
S31520003E300BD0092A07D00420704740F201139A427A
S31520003E40F9D104F0A7B800F0E1BF02F0FBBF02F001
S31520003E5013BD034B1B68D0E917019B69184700BFA8
S31520003E605485202013B50446B0F85A00030103F404
S31520003E70706343EA1020092805D1E06D02B0BDE841
S31520003E80104012F0B7BA082805D1E06D02B0BDE89F
S31520003E90104002F035BE030A012B0FD101A901F013
S31520003EA0ADF848B9064B1421019A9B68E06D01FBD9
S31520003EB002331B691B69984702B010BD0420FBE73B
S31520003EC05485202010B5054C70220021204614F080
S31520003ED00AFB034B0020236010BD00BF88A72020CB
S31520003EE0ED3B002038B5436A044600F158050FCB58
S31520003EF085E80F0004F167025A2315F8011F954241
S31520003F000B44FAD194F85820DBB29A4205D01E48C9
S31520003F10FFF7B8FC42F2797038BD94F859300A2B75
S31520003F202DD8DFE803F02F090E1306182F1D0622C1
S31520003F30270042F21270EFE72046BDE8384012F023
S31520003F40ADB92046BDE83840FFF72EBF2046BDE874
S31520003F503840FFF73BBF2046BDE8384012F0BAB9DB
S31520003F602046BDE83840FFF753BF2046BDE838401D
S31520003F70FFF778BF2046BDE83840FFF731BF42F251
S31520003F807B70C9E70020C7E77C95012009480A4BCA
S31520003F90C268436232B103699A4208D00133036191
S31520003FA003681847836E002BFAD0013B83660020F6
S31520003FB0704700BF88A7202074A720202DE9F04154
S31520003FC0002407460E46104DA046B44201D10020DB
S31520003FD009E02B69C3F110032344A3420CD0A64267
S31520003FE003D142F27D70BDE8F0812A69511C296116
S31520003FF0395D0134A954F0E7C5F81080FFF7C6FFF4
S315200040000028E2D0EFE700BF74A720202DE9F04179
S31520004010DFF8B080D8F800301B6933B9234B40F263
S31520004020BA41234A234810F05BF89847044618BB48
S31520004030214D95F85960042E21D1EF6D38460CF0AC
S3152000404095FDB8B120460DF0CBF8B5F85A309B0750
S315200040500ED52B6E63B1D8F8042011688B4220D37D
S315200040605268013293421CD883F3088883F3098867
S31520004070686EB84742F27E742046BDE8F081082E6D
S3152000408011D102200DF0ACF8BFF34F8F0B490C4B2A
S31520004090CA6802F4E0621343CB60BFF34F8F00BFC0
S315200040A0FDE73446E8E742F27B74E5E72A950120EE
S315200040B0A39501205595012088A7202000ED00E03A
S315200040C00400FA055485202038B50B4BDB681D69A2
S315200040D005F18004204614F0D4F920B9D5F88020C3
S315200040E0064B9A4204D03422FF21204614F0FBF9D5
S315200040F014F0ABF9002038BD548520206B63666729
S3152000410038B5FFF7E1FF2049204A0120CB68204C33
S315200041101B694D69DFF894C0C3E911021D4A1A676D
S315200041201D4A5A671D4A9A671D4ADA671D4AC3E91E
S3152000413000420022C3E902C255F82200D0B91A4A29
S31520004140D2F81044DC64D2F820241A654A685168F3
S31520004150146801319C62091B546959639169DC62B8
S315200041600131091B9963916AD26A19630132521A85
S31520004170DA6338BD93F89040063204421EBFDC68ED
S315200041802043D860D8E700BF54852020DF6F050084
S315200041900008024B0020002048B601200080202085
S315200041A0FF6B21200002015000401F4000000154F7
S315200041B02DE9F043884689B01B4E74681CB904204B
S315200041C009B0BDE8F0833368834220D00836F4E78F
S315200041D0012502AF0294A946736801A928460194D5
S315200041E0984790B9019B7B606B1E09FA03F2029BEC
S315200041F01343029301350437062DEDD1182202A967
S31520004200404614F062F90020DAE77C60F2E71822D3
S31520004210002102A814F067F969460020A047009CF7
S31520004220002CD5D02046CBE7D8930120F8B51F46E1
S315200042302B4B16460138DA680D461469182849D8DA
S31520004240DFE800F00E0D484848481E48482022293D
S3152000425048101846313848484848483B3D000C34F9
S3152000426004211AE0022901D92834F9E70A3504EB9A
S315200042708504F5E7022901D93434F1E70D35F6E74F
S315200042804834EDE74434EBE7D869164C43695B695B
S3152000429098472060E4E77034102107B13960E6B111
S315200042A000203460F8BD0FF059FB00380D4C18BFC4
S315200042B00120EEE74C340821EFE70834D0E7B43488
S315200042C028462146FFF774FF0028EBD11821E4E7A2
S315200042D0054CC5E742F63C00E4E73046E2E700BF7E
S315200042E054852020C8A8202088802020074BD3F87A
S315200042F04824511C1A44C3F8481482F80002D3F803
S31520004300482402F03F02C3F848247047CCA8202056
S31520004310054B0A46DB69196910B44C6801461846F4
S3152000432023465DF8044B1847548520202DE9F04F8D
S3152000433089B004460D46164609F0A4FCCDE90401D1
S31520004340BFF36F8F4FF47A70704309F0A9FC834650
S315200043508A46DDE90423CDE906236319224D03931A
S31520004360039B9C4203D1002009B0BDE8F08F09F0E1
S3152000437089FCCDE90601DDE90601DDE90423DDE955
S315200043800689DDE90467CDE90023B04579EB07030B
S3152000439020D3009BC21A019B61EB03035BEA0A014F
S315200043A003D05A4573EB0A031CD2D5F84C34D5F802
S315200043B048249342D4D05A1C2B4493F80032C5F893
S315200043C04C2404F8013BD5F84C3403F03F03C5F8E0
S315200043D04C34C5E7DDE90601DDE90467821B61EBA4
S315200043E00703DBE70520BFE7CCA8202008B5084B4C
S315200043F093F850242AB9074BE521074A07480FF0BE
S315200044006FFE012283F85224002283F8502408BD2F
S31520004410CCA82020D695012043970120F295012093
S315200044205A2337B501228DF804300A4B05468DF8FC
S315200044300500022101A883F85124FFF769FF0446ED
S3152000444020B1024629460448FFF71CFA204603B04D
S3152000445030BD00BFCCA8202002960120084B93F83F
S3152000446050242AB10022A12083F85024FFF7D8BF78
S3152000447093F8520418B1A32083F85224F6E7704724
S31520004480CCA820202DE9F341164698460F4611B1B7
S31520004490B2F5007F08D931462B480424FFF7F2F9FC
S315200044A0204602B0BDE8F081FFF7D8FF0446002879
S315200044B0F6D1264D95F851340BB185F851045A237F
S315200044C085F84032B8F1000F27D1A42385F8413270
S315200044D0A5F8426226B1324639461D4813F0F5FF4B
S315200044E01B49881F11F02EFFB11DA5F8440219485B
S315200044F0FFF70EFF04460028D2D1164E01A811F070
S315200045003BFF04460028CBD19DF8051001F15F033F
S31520004510DBB2022B03D91048BFE7A523D6E7A32990
S315200045200DD0A229BCD1B5F8421230460631FFF78C
S31520004530EFFE38B99DF80530A22BDFD0B0E742F266
S315200045401274ADE70446ABE737960120CCA82020AD
S3152000455012AB20200CAB20206196012013B5044617
S3152000456030B9124B40F23311114A12480FF0B8FD00
S31520004570114B93F850242AB193F8512412B193F891
S3152000458052347BB94AF25A73022201A92046ADF869
S31520004590043023695B6898472369082207495B68CA
S315200045A02046984742F2137002B010BD6FA7012033
S315200045B029970120F2950120CCA82020788C012073
S315200045C02DE9FF47164698460F4601B13AB904240D
S315200045D04148FFF757F9204604B0BDE8F08700238D
S315200045E03E4D136085F85134FFF738FF0446002806
S315200045F0F1D1B8F1000FDFF8ECA0DFF8EC8014BFA2
S315200046004FF0A5094FF0A4094FF400720021284667
S3152000461013F069FF02A811F0AFFE0446F0B99DF829
S315200046200910A62914D1DAF81C00FFF797FFA8B9BC
S31520004630294602A811F086FEBDF80C1002468842D3
S3152000464041D04046FFF71EF9A220FFF7E9FEDBE73F
S31520004650494507D02248FFF715F9012000230446D3
S315200046603360B8E7ADF804001422022101A8FFF751
S315200046705DFEBDF804300028F0D1B3F5007FADF81B
S3152000468004004FF014024FF0020128BF4FF40073CC
S3152000469001A8ADF80A30FFF749FEBDF80430ADF8A1
S315200046A00C300028DAD1BDF80A20002AC0D00146F5
S315200046B0284613F018FFBDF80A100A2228464A4356
S315200046C0FFF734FEB3E7012385F85034BDF80A30EE
S315200046D03D6033607FE700BFAC960120CCA8202048
S315200046E0C4960120548520200097012013B5044646
S315200046F0019113F0BCFE221A0092FFF785F90FF004
S3152000470037F90549DDE9002312F05BFF0090FFF73A
S3152000471081F9009802B010BD20AD202030B50446A6
S3152000472085B0154603910FF023F9039B22460349D2
S31520004730009512F089FF05B030BD00BF20AD2020C6
S31520004740094B1B7870B505460E46144643B113F047
S315200047508EFE3246291A2046BDE87040FFF7DEBF9E
S3152000476042F2DD7070BD00BF20AF2020F8B531B910
S31520004770254B4FF46571254A25480FF0B1FC254B92
S315200047801B78002B3CD0244BD3F8C4717A427B1E75
S3152000479000EA02061844441830461440A41B214659
S315200047A0FFF7A4FF054648BB394630460CF0E0FC2F
S315200047B01A4A5369DB0312D5002F10DD06F01F01BC
S315200047C03944BFF34F8F33463144C2F85C3220332D
S315200047D0C81A0028F9DCBFF34F8FBFF36F8F104B39
S315200047E0DB681B695B6C012B08D12146304611F032
S315200047F0DAFD44F68A63002808BF1D462846F8BD20
S3152000480042F2DD75FAE700BF57970120B9970120DC
S315200048105E97012020AF202020AD202000ED00E073
S3152000482054852020F0B50546ADF2044D0C460F4FB9
S315200048301CB901200DF2044DF0BDB4F5806F26465B
S3152000484028BF4FF4806613F012FE291A68463246B6
S31520004850FFF764FF32463946684613F026FE18B93C
S31520004860A41B35443744E3E70020E3E730AF20209C
S31520004870F8B5374CA37813B900252846F8BD002390
S31520004880344EA370D6F8C021A368934206D004F113
S315200048901000D21AFF21184413F025FED6F8C011B5
S315200048A0606811F080FD18B942F2DB75A070E4E76C
S315200048B0D6F8C01160680CF07BFB00283ED16768F3
S315200048C0FFF7A2F80FF054F8054613F0D0FD224B5F
S315200048D03A1A2049284612F050FC0546FFF79AF866
S315200048E00023A370A360002DC7D11C494B69DB03AD
S315200048F014D5D6F8C001002810DD636803F01F0226
S315200049000244BFF34F8F1A44C1F85C322033D01AC9
S315200049100028F9DCBFF34F8FBFF36F8F104BDB6896
S315200049201B695B6C012BA7D1D6F8C0116068FFF715
S3152000493079FF0028A0D144F68A659EE7064AD6F874
S31520004940C01160680CF0B4FB05460028B7D094E788
S3152000495020AF202020AD202030AF202000ED00E029
S31520004960548520202DE9F047064617460D4631B9D5
S315200049702B4B40F2AA212B4A2B480FF0B1FB22B930
S315200049802A4B40F2AB21274AF6E7294C2378002B05
S3152000499040D0DFF8A49004F11008A37833BBD9F8EF
S315200049A0C031013B334038D10122C4E90163A270F2
S315200049B0A0683946D9F8C021431993422CBFA2EBEF
S315200049C0000AAA4640445246564413F07EFDA36888
S315200049D0D9F8C02157445344A5EB0A059342A36056
S315200049E00FD9144B40F2EA210E4AC5E7D4E9012338
S315200049F01344B342DCD0FFF73BFF0028CDD0BDE8FF
S31520004A00F08703D1FFF734FF0028F8D1002DC4D159
S31520004A102846F4E742F2DD70F1E744F68960EEE7D6
S31520004A2057970120CF9701205E9701207397012089
S31520004A3020AF20207A97012020AD2020124B1B7812
S31520004A4073B504460D460192DBB121F003060644F8
S31520004A50B44206D115F003010CD1FFF709FF02B0CD
S31520004A6070BD01AA04212046FFF77CFF0028F6D15D
S31520004A700434EDE701AA2046FFF774FF0028ECD0A6
S31520004A80EDE742F2DD70EAE720AF202010B50C46B4
S31520004A90002931D010282FD8DFE800F0091316217D
S31520004AA025292E2E2E2E2E2E2E2E2E2E3000184B33
S31520004AB01A7842F2DD73002A08BF184620600020CB
S31520004AC010BD13F0D4FCF9E7124AD2E914310B4495
S31520004AD0916DD26D0B4413449B0A2360EFE70D4B77
S31520004AE0D3F8C031F9E70B4BD3F8C431F5E7094BBE
S31520004AF0D3F8D031002BF0D10420E1E7054AD2E9E2
S31520004B0014310B44916DD26D0B441344E5E700BF7D
S31520004B1020AF202020AD2020C37803F0F002C02A49
S31520004B20F0B50646ADF5037D2AD10EF021FF3246BB
S31520004B30B14909F081FB0446002864D10023AF4E19
S31520004B4033700EF015FFAC4912F003FB0446002823
S31520004B5059D10EF00DFF12F0BBFF02A91020FFF76E
S31520004B6095FF044600284ED1A54D01276F6413F00A
S31520004B707EFCE863029B013B18442864377009E0F9
S31520004B800168A04C9D4DA1420FD12B78002B40F0FF
S31520004B908C800424994D6B78002B40F0E9800CF032
S31520004BA0DFF880B301236B702DE0974CA14206D12C
S31520004BB001464FF40072904813F087FCBEE7E02AC6
S31520004BC00FD12B780BB904241DE013F0A6FB002887
S31520004BD0F9D030460CF0DCF80446A0B901236B70FE
S31520004BE0D8E7B02A5ED12A78002AECD0C3F303078F
S31520004BF003F00F03012BE6D883B90BF0E3FE04463E
S31520004C0028B185F8107420460DF5037DF0BDB368F4
S31520004C10C5F81434012385F81034BBE795F8103411
S31520004C20002BD0D003781B07CDD10023009313F09F
S31520004C301EFC694606461020FFF728FF044600287A
S31520004C40E1D16D4B02A901A8D5F81454D3F8C0714F
S31520004C500BF0EAFE04460028D5D1029B009A2B448D
S31520004C6093421CD835447B1E2B4215D13946284603
S31520004C7011F099FB68B12846DDE90121FFF772FEA4
S31520004C8004460028BFD1FFF7F3FD04460028BAD119
S31520004C9080E742F2DB74B6E742F2DE74B3E742F213
S31520004CA0D874B0E700236B708DE7534D284612F079
S31520004CB097FE074600284ED04FF40072294602A8D8
S31520004CC002AE13F002FC2B6C23F004032B64D5F800
S31520004CD0C0315B08C5F8C031D5F8C4315B08C5F8CA
S31520004CE0C431D5F8D0315B08C5F8D0310EF040FE7E
S31520004CF0294612F02EFA002866D113F0B8FB4FF49D
S31520004D00007111F050FB002872D095F8CA317BB1A2
S31520004D1002AB394900221E4648780232023303F894
S31520004D20020CB2F5007F11F8020B03F8010CF3D147
S31520004D3013F09DFB32464FF40071FFF713FE044635
S31520004D4058B113F094FB4FF40071FFF7CFFC002FFE
S31520004D503FF459AF36E02E46CFE7FFF789FD0446EC
S31520004D6070B313F084FBD5F8C411FFF7FFFCEEE710
S31520004D70002602AA01A93046751C0CF049F928B173
S31520004D80022D4FF001063FF43EAFF2E713F06FFB22
S31520004D904FF4007100EB8520AE0211F004FB0028D1
S31520004DA0EED013F064FB3044DDE90121FFF7DAFD94
S31520004DB000287FF428AFFFF75BFD0028E0D022E72C
S31520004DC0A7B12746AE4205D04FF4007231460A48B5
S31520004DD013F07BFB0EF0CCFD074912F0BAF904461E
S31520004DE000287FF410AF002F7FF40DAF0024D1E60A
S31520004DF042F2DB74ABE700BF20AD202020AF20209D
S31520004E00F08520200F0000F046434642184B1B78C1
S31520004E1037B54BB313F02BFB01A905461020FFF73E
S31520004E2035FE0446E8B9FEF7EFFD0EF0A1FD114967
S31520004E3012F005FA0446FEF7EDFD0F4BDB681B6901
S31520004E405B6C012B05D064B9019928460CF090F9CA
S31520004E5007E00199284611F0A6FA0028F3D144F676
S31520004E608A64204603B030BD42F2DD74F9E700BF04
S31520004E7020AF202020AD20205485202010B5034CC3
S31520004E80206810B180470023236010BD3CB320204A
S31520004E9010B5034C206810B180470023236010BD55
S31520004EA038B3202038B5094D6C68206918B9AC682C
S31520004EB023692BB938BD036803B198471434F4E746
S31520004EC01B6803B198471434F2E700BF54852020AD
S31520004ED010B532B9124B40F26711124A12480FF040
S31520004EE0FFF8124B5B68136039B113682BB11C684D
S31520004EF034B95C6834B91C6924B942F2D8700BE025
S31520004F00A0420AD35C68A04207D80138014442F285
S31520004F10D8708C4228BF002010BD1433E3E700BFB1
S31520004F20E59701200198012014980120548520201E
S31520004F3070B533B9164B4FF4C771164A16480FF0A1
S31520004F40CFF8164CA4681C6009B11C6814B942F24B
S31520004F50D87019E0256845B9666836B9A66826B9B5
S31520004F60E66816B92669002EF1D0AA420DD1D4E9F9
S31520004F70025241184FF00003A5FB025243EB0306F1
S31520004F808D42B241E3D3184670BD1434DBE700BF2F
S31520004F90E5970120E99701201498012054852020C7
S31520004FA0D3B5174606461A460C4611B312F4706F4F
S31520004FB0C3F3032305D0012B10D042F2D87002B0E0
S31520004FC0D0BD01AAFFF784FF0028F8D1019B1B69F9
S31520004FD05B683A46214630469847F0E701ABFFF733
S31520004FE0A7FF0028EBD1019B034A1B699969116031
S31520004FF0EEE70846E3E700BF38B3202030B539B1E5
S31520005000084B00229B681BB11C680CB11D690DB9A9
S31520005010042003E0844202D100200A6030BD013220
S315200050201433F0E75485202001390B181049CA683B
S3152000503070B512694C68D2E91C1526688E4205D0D7
S31520005040A84205D88B4203D301200EE0A942F7D10E
S315200050506469D2E91E12A14201D1914206D0904242
S3152000506004D899428CBF0020012070BD0020FCE7A7
S3152000507054852020F7B5174605461A460C460029C2
S315200050803CD012F4706FC3F3032304D0012B1ED03F
S3152000509042F2D87019E0FFF7C7FF06460028F7D17D
S315200050A001AA21462846FFF713FF70B9019B3A460D
S315200050B0214628461B699B689847114B20B9019ABF
S315200050C0126912691A6000E01E6003B0F0BD01ABE0
S315200050D0FFF72EFF0028F8D1019B2846094A1B69B5
S315200050E099699B6811603A4621469847044B18B93E
S315200050F0019A12695269E5E70022E3E70846E4E7E8
S315200051003CB3202038B320200246084612F4706FA4
S31520005110C2F3032310B405D0012B0DD004205DF873
S31520005120044B70470E4B5B6819690029F6D0DC6882
S3152000513094420FD01433F7E7094B9B68143353F886
S31520005140041C0029EAD053F8144C14339442F6D1A7
S315200051500B6902E08B69002BE0D05DF8044B184701
S3152000516054852020034B002083F8100383F809037D
S31520005170704700BF40B320202DE9F04105460C467C
S315200051801646DFF83C800D4F14B90120BDE8F081AA
S3152000519001232A464146384606F08AFE034650B980
S315200051A0074A52F8041BB14205D10433B3F5007FF8
S315200051B0F7D1013CE8E70020E8E700BF40B3202014
S315200051C064B620202DE9F74F81460D46904632B928
S315200051D0274B40F21A21274A27480EF081FF274EF7
S315200051E096F80833002B3FD0C0F30804470A4FF047
S315200051F0000BDFF88CA01DB9284603B0BDE8F08F60
S3152000520096F8093333B1D6F80C339F4202D35A1C91
S31520005210974226D301233A465146304686F809B3AB
S3152000522006F046FE0028E8D10123C6F80C7386F85E
S3152000523009332B190AEB04014046B3F5007F8CBFD6
S31520005240C4F500722A46019213F03FF9019A1444DC
S31520005250AD1A9044B4F5007F24BFA4F5007401373D
S31520005260C9E7A9EB4324E4E742F2DD70C5E700BFB6
S31520005270739701202B9801201098012040B32020FD
S3152000528064B6202010B5254C204606F0CBFD00281C
S315200052903DD1D4F81433B3F5007F0CD094F8B01276
S315200052A0C3F500721E4801294FF0FF31184418BF7C
S315200052B0002113F018F994F8B02200230121D4F824
S315200052C01803012A4FF0FF3284F8103318BF00224A
S315200052D0FFF752FFF0B10123D4F8182310490F48E5
S315200052E006F090FE90B90123D4F818230D490B48F7
S315200052F006F0DEFD50B94FF400720A49084813F053
S31520005300D4F842F2DF73002818BF184610BD42F2C7
S31520005310E070FBE742F2DB70F8E700BF40B32020E5
S3152000532064B8202064B620202DE9F74F80460D462C
S31520005330164632B92F4B4FF415712F4A2F480EF0CF
S31520005340CFFEDFF8BCB09BF80833002B4ED0C0F35D
S315200053500804470ADFF8AC904FF0010A0DB9284639
S3152000536011E09BF810331BB984B142F2DE700AE0DB
S31520005370DBF818339F4202D35A1C97422BD3FFF7F0
S3152000538081FF0028F0D003B0BDE8F08FCBE9C547F8
S315200053908BF810A32B19314609EB0400B3F5007FD7
S315200053A08CBFC4F500722A46019213F08EF8019A3A
S315200053B0DBF814331444AD1A13441644B4F5007FB5
S315200053C0CBF81433CAD3FFF75DFF0028DBD1A4F551
S315200053D000740137C2E7A8EB4324DBF81433A34259
S315200053E0D8D0FFF74FFF0028CDD1B7E742F2DD70C6
S315200053F0C9E700BF739701201D980120109801204E
S3152000540040B3202064B82020034B93F8100308B142
S31520005410FFF738BF704700BF40B3202070B5134E4A
S3152000542005460C4696F80833BBB1304606F0FAFC22
S31520005430B0B9C4B16A1ED6F8E002D6F8FC122244EE
S31520005440B5FBF0F5B2FBF0F23046B2FBF1F2B5FB5C
S31520005450F1F1BDE8704006F083BE42F2DD7070BD0A
S3152000546042F2E070FBE72046F9E700BF40B3202078
S31520005470104B93F80023072A19D8DFE802F0040915
S3152000548009180C0F1215D3F8E43203600020704778
S31520005490D3F8E832F9E7D3F8EC32F6E7D3F8F0326E
S315200054A0F3E7D3F8F432F0E7D3F8F832EDE7042047
S315200054B0704700BF40B3202013B5044601A8FFF76C
S315200054C0D7FF48B9054A019BD2F8E022A3FB023256
S315200054D09B0A43EA8253236002B010BD40B32020CA
S315200054E0F0B587B006460BF041FB08B904241CE052
S315200054F0F01D0BF03BFB0028F8D0F37803F0F00208
S31520005500B02A6DD18C4D95F80823002AEED0C3F32E
S31520005510030703F00F03012BE8D883B930460BF0BD
S3152000552051FA044620B185F81C73204607B0F0BD19
S31520005530B368C5F82033012385F81C33F5E795F8C1
S315200055401C33002BD2D0337813F00F03CED101A811
S315200055500193FFF7B1FF04460028E6D1019B03A97A
S3152000556002A8D5F8E072B3F5800FD5F8206384BF82
S315200055704FF0FF3301930BF057FA04460028D4D19D
S31520005580039B019AF118914221D87A1E324221D1E9
S3152000559095F8B022B3FBF7F1012A07FB11334FF040
S315200055A0FF3218BF0022002B18BF0131B6FBF7F0DF
S315200055B0FFF7E2FD88B13046DDE90221FFF7B4FEB0
S315200055C004460028B1D1FFF71FFF0446ADE742F29B
S315200055D0D874AAE742F2DE74A7E742F2DB74A4E7A6
S315200055E0C02A83D1544D4FF449720021284612F027
S315200055F07AFF524B0F202B600CF0EEFB504B2968A4
S315200056005B6AC3F302430133B0FBF3F04D4B686092
S315200056101A68914204BF002283F8D42040F2FF1377
S31520005620A5F804330223A5F802337378C3F30313D2
S3152000563085F82C307378C3F3030385F82D30B379BE
S31520005640B279C3F3C00385F83830B379C3F3C013F6
S3152000565085F83930F37903F00303022B65D0032B49
S3152000566066D0012B14BF44F6206342F2107312F069
S31520005670100F40F6C411C2F380022B6341F2883327
S3152000568018BF0B462C486B6385F83A2006F0ACFB16
S31520005690044600287FF449AFF178274801F0070136
S315200056A006F0D8FB044600287FF43FAF01A8FFF799
S315200056B0DFFE044600287FF438AF02A940F221100D
S315200056C0FFF79CFC044600287FF42FAF029A142192
S315200056D01D4B01FB0233D5F8E022DA60019A9A606D
S315200056E03378DA071DD5B278CDF81100C2F301015F
S315200056F0C2F3021210488DF80F10C3F301118DF872
S315200057000D20C3F38002C3F3C0038DF80E1003A946
S315200057108DF80C208DF8103006F002FE00287FF45C
S3152000572054AF012385F80833FFE641F288339EE71C
S3152000573040F6C4139BE700BF40B3202000402C4016
S3152000574000C00F4064BA20207885202013B50E4C67
S3152000575094F8083393B1204606F064FB88B901A873
S31520005760FFF786FE40B9D4F8FC320146019A20465E
S31520005770B2FBF3F206F0F4FC02B010BD42F2DD708B
S31520005780FAE742F2E070F7E740B3202013B540F283
S31520005790FF13144CA4F8043302232046A4F8023342
S315200057A00EF0E2F9D0B9204606F01EFBC0B96946D4
S315200057B040F22110FFF722FC80B901A8FFF758FE1E
S315200057C060B9009A1421084B01FB0233D4F8E02279
S315200057D0DA60019A9A60012384F8083302B010BD7A
S315200057E00023F9E740B3202078852020E1B1052861
S315200057F01AD8DFE800F0030E111919140B4B93F891
S31520005800082342F2DD73002A08BF184608600020EC
S3152000581070470020086070470846FFF74DBE034BCF
S31520005820D3F8E0320B60F2E70420704740B3202023
S31520005830034B002083F8DC0083F8D500704700BFB7
S3152000584064BA20202DE9F04105460C461646DFF8BD
S315200058503C800D4F14B90120BDE8F08101232A4672
S315200058604146384607F096FA034650B9074A52F899
S31520005870041BB14205D10433B3F5007FF7D1013CB7
S31520005880E8E70020E8E700BF64BA202054BB2020C8
S315200058902DE9F74F81460D46904632B9274B40F207
S315200058A0DF11274A27480EF01BFC274E96F8D430E6
S315200058B0002B3FD0C0F30804470A4FF0000BDFF857
S315200058C08CA01DB9284603B0BDE8F08F96F8D530D8
S315200058D033B1D6F8D8309F4202D35A1C974226D3EA
S315200058E001233A465146304686F8D5B007F052FA9B
S315200058F00028E8D10123C6F8D87086F8D5302B19B0
S315200059000AEB04014046B3F5007F8CBFC4F5007254
S315200059102A46019212F0D9FD019A1444AD1A9044F8
S31520005920B4F5007F24BFA4F500740137C9E7A9EBBD
S315200059304324E4E742F2DD70C5E700BF73970120F8
S31520005940519801203898012064BA202054BB202089
S3152000595010B5214C204607F005FAB8BBD4F8E03044
S31520005960B3F5007F09D0B4F8BE10C3F500721B480A
S3152000597041F30001184412F0B6FDB4F8BE2000230E
S315200059800121D4F8E40042F3000284F8DC30FFF76A
S3152000599059FFF0B10123D4F8E42010490E4807F04E
S315200059A097FA90B90123D4F8E4200D490A4807F064
S315200059B0F1F950B94FF400720949084812F075FD03
S315200059C042F2DF73002818BF184610BD42F2E0707D
S315200059D0FBE742F2DB70F8E764BA202054BD2020B2
S315200059E054BB20202DE9F74F80460E46174632B984
S315200059F0324B4FF40771324A32480EF071FB324D6A
S31520005A0095F8D430002B55D0C0F308044FEA502B1C
S31520005A10DFF8B8904FF0010A0EB9304611E095F83C
S31520005A20DC301BB984B142F2DE700AE0D5F8E430EE
S31520005A309B4502D15A1C93422CD3FFF789FF00289D
S31520005A40F0D003B0BDE8F08FC5E9384B85F8DCA06F
S31520005A503319394609EB0400B3F5007F8CBFC4F532
S31520005A6000723246019212F030FD019AD5F8E030EC
S31520005A701444B61A13441744B4F5007FC5F8E03031
S31520005A8016D3FFF765FF0028DBD1A4F500740BF1D0
S31520005A9001030BE0A8EB4324D5F8E0200193A242B2
S31520005AA0D6D0FFF755FF0028CBD1019B9B46B3E705
S31520005AB05B46FBE742F2DD70C3E700BF7397012028
S31520005AC0449801203898012064BA202054BD202013
S31520005AD0034B93F8DC0008B1FFF73ABF704700BFCD
S31520005AE064BA202013B5104C20460EF099F8B8B9A8
S31520005AF0204607F03DFDA8B901A94FF49070FFF7A5
S31520005B007DFA68B9019A1421084B01FB0233D4F8B7
S31520005B10CC20DA60D4F8C8209A60012384F8D430E7
S31520005B2002B010BD0023F9E764BA20207885202032
S31520005B3070B50F4E05460C4696F8D43083B13046E4
S31520005B4007F010F978B98CB1690A013D30462C442A
S31520005B50C1F1010202EB5422BDE8704007F05ABAA7
S31520005B6042F2DD7070BD42F2E070FBE72046F9E7B5
S31520005B7064BA202010B50D4C94F8D43083B1204659
S31520005B8007F0F0F8014670B92046D4E93223BDE883
S31520005B901040A2FB0323520A42EAC35207F03ABA44
S31520005BA042F2DD7010BD42F2E070FBE764BA2020BD
S31520005BB0F7B505460AF0DAFF08B904201BE0E81C11
S31520005BC00AF0D4FF0028F8D0EB7803F0F002B02AD0
S31520005BD05FD16D4E96F8D420002AEED0C3F303048D
S31520005BE003F00F03012BE8D873B928460AF0EAFE22
S31520005BF018B186F8E84003B0F0BDAB68C6F8EC30C3
S31520005C00012386F8E830F6E796F8E830002BD4D062
S31520005C102B781B07D1D101A96846D6F8EC70D6E9B6
S31520005C203245A5FB0443A40A44EA8354B4F5800F05
S31520005C3088BF4FF0FF340AF0F7FE0028DBD1019B26
S31520005C40FA18A2421CD86A1E3A421CD1B6F8BE20C7
S31520005C50B3FBF5F105FB113342F30002B7FBF5F078
S31520005C60002B18BF0131FFF7EDFD78B13846DDE98D
S31520005C700021FFF7B7FE0028BDD1FFF729FFBAE7BD
S31520005C8042F2D870B7E742F2DE70B4E742F2DB7038
S31520005C90B1E7D02A91D13C4CF0220021204612F0C7
S31520005CA022FC3A4B0F2023600CF096F8384B2168E3
S31520005CB05B6AC3F3C2230133B0FBF3F0354B60605C
S31520005CC01A68914204BF002283F808236B78C3F335
S31520005CD0021384F82C306B78C3F3000384F82D303C
S31520005CE0AB78EA78C3F3C00302F0030284F83830B5
S31520005CF0AB78022AC3F3C01384F83930AB783AD094
S31520005D00032A3BD0012A14BF44F6206242F21072C5
S31520005D1013F0100F40F6C411226341F2883218BFE7
S31520005D200A4613F0600F1848626318BFC3F3411385
S31520005D306A780CBF01235B00C2F34202236452013E
S31520005D40E26307F015FCE0B901A94FF49070FFF764
S31520005D5055F900287FF44FAF019A14210E4B01FB11
S31520005D600233D4F8CC20DA60D4F8C8209A60012314
S31520005D7084F8D4303FE741F28832C9E740F6C412AE
S31520005D80C6E70023F4E700BF64BA202000002C40B9
S31520005D9000C00F4040B320207885202011B305286D
S31520005DA020D8DFE800F0030E111F1F1B0E4B93F8BF
S31520005DB0D42042F2DD73002A08BF1846086000206E
S31520005DC07047002008607047074AD2E93232A3FBA9
S31520005DD002329B0A43EA82530B60F0E7024BD3F868
S31520005DE0CC30F9E70420704764BA20200A4B002201
S31520005DF0D3F8A831B0FBF3F0084B1969203310B55E
S31520005E00914201D1002010BD53F8044B844201D0A9
S31520005E100132F5E70120F6E79403212074FF2020C4
S31520005E2000280D4A0D4B08BF134610B50C4640F20C
S31520005E301C4108BF4FF47F7162689A420AD1A36859
S31520005E40012B07D1201D10F06DFB23681B1A584229
S31520005E50584110BD0020FCE74243464E544242447E
S31520005E6013B54FF4807001A9FFF7C8F878B9019BE4
S31520005E701421084A01FB03220749D1F8A031D36037
S31520005E80D1E96B43D1F8A81163434B43936002B029
S31520005E9010BD00BF7885202094032120064A13696F
S31520005EA0FF2B07D8591C0833116142F82300012221
S31520005EB0024B5A70704700BF74FF202054BF202029
S31520005EC010B5094C4FF48062FF21204612F00BFBDF
S31520005ED0064A01234FF47F71201DC4E9012310F0E7
S31520005EE021FB206010BD00BF940321204243464E73
S31520005EF0064A014692F8E0312BB905488370436083
S31520005F00044BC2F8E431044804F0F6B99403212086
S31520005F1054DF202056BF2020940421202DE9F0476D
S31520005F20154F0D461446D7F8A01102EB050897F831
S31520005F30E031B0FBF1F62BB9104A93705360104B49
S31520005F40C7F8E431DFF83C90444502D30020BDE891
S31520005F50F087D7F8A031224631464846AB4228BFC3
S31520005F602B469A4604F026FA0028F0D15444A5EB95
S31520005F700A050136E8E700BF9403212054DF2020DC
S31520005F8056BF202094042120484800232DE9F04FB5
S31520005F9000F58046464D85B0F268D5F8A0113469E3
S31520005FA08A42D5F8A8813372D5E96BA907D002F5C4
S31520005FB000538A1AFF210833184412F094FA01225A
S31520005FC021463C4810F0EFFD074628B142F2DB7728
S31520005FD0384605B0BDE8F08FD5F8A011364A04FB47
S31520005FE001F0FFF79BFF0028F2D00AFB09F3DFF848
S31520005FF0CCB0DFF8C0A00193B4FBF8F0FFF74EFF5A
S31520006000736900F1010801337361019B984502D33E
S3152000601042F2D877DCE7D5F8A89108FB09F10846C3
S315200060200291FFF7E3FE029938BB5046B4FBF9F321
S3152000603009FB13435A1CA4EB0309039310F0B3FD89
S315200060400028C3D1039B02991B1B0B440393039B7C
S315200060504C454B440293D5F8A03114D8164A19461C
S3152000606003FB04F0FFF75AFF0028B1D042F2DB739E
S315200060709842ABD04046FFF711FF736908F101083B
S3152000608001337361C1E75A464946504603F0D4FFAF
S315200060900028EBD1D5F8A0115A4602984843FFF7BD
S315200060A03DFF0028E2D109F10109D0E754BF2020A5
S315200060B094032120940421205CDF202056BF202039
S315200060C02DE9F74F0F469146002A75D0404A13789E
S315200060D0002B73D0DFF8FCA0DAF8A081DAF8403084
S315200060E0B0FBF8F59D426CD302F58046DAF8A8217C
S315200060F008FB1504736902FB03550FB938464DE0BA
S31520006100336996F808B0AB4222D1BBF1000F1FD0FD
S31520006110F368A3424BD13B1904F500504946434549
S3152000612000F108002A4B8CBFA8EB040BBB46184491
S315200061305A465C4412F0C9F9F368A045A7EB0B0751
S315200061405B44D9449CBFA4EB08040135F360D4E733
S31520006150DAF8A811B5FBF1F0BBF1000F03D0B3FBC1
S31520006160F1F3984216D00191DAE96B325343834218
S315200061702AD92846FFF73AFE019920B173690D44C2
S3152000618001337361B9E7BBF1000F03D14CB145F27E
S31520006190D12003E0FFF7F8FE0028F7D003B0BDE8D2
S315200061A0F08F4FF00103C6E903453372B3E7FFF7DB
S315200061B0EBFE0028F2D1A0E70420EFE742F2DD70E3
S315200061C0ECE745F2E320E9E742F2D870E6E700BFC4
S315200061D054BF202094032120024B187A08B1FFF7E0
S315200061E0D3BE704754FF20202DE9F74F0E4600926C
S315200061F0002A65D0DFF8E09099F80030002B61D0B6
S31520006200DFF8D88009F5804B09F5005AD8F8A07137
S31520006210DBF81430D8F8A821B0FBF7F507FB1504F6
S3152000622002FB03551EB9304603B0BDE8F08FDAF8FD
S3152000623004309AF80200AB4200D158BBD8F8A82106
S31520006240B5FBF2F118B1B3FBF2F3994211D00192EA
S31520006250D8E96B3043438B4237D92846FFF7C6FD32
S31520006260019A30B1DBF8143015440133CBF81430E1
S31520006270D8E70023164A294616488AF80230D8F865
S31520006280A03103F0D9FE0028CED10123CAF804504C
S315200062908AF802303319A11C0098BB4249448CBFAE
S315200062A03A1B3246019212F010F9019A009B1444CF
S315200062B0B61A1344A74200939CBFE41B0135B1E7ED
S315200062C00420B1E742F2DD70AEE742F2D870ABE7C8
S315200062D056BF20209404212054BF2020940321203F
S315200062E02DE9F74F064601920D464FF40052002144
S315200062F01548984612F0F7F8002E4FF0000BDFF8FD
S315200063004CA00CBF4FF480694FF484690E4F019B5B
S315200063109B4501D1012412E0DAF8A0013A4649460C
S315200063206843FFF761FF044618B145440BF1010BA2
S31520006330EDE739463046FFF773FD0028F5D02046B5
S3152000634003B0BDE8F08F00BF56BF20209403212064
S3152000635073B50DF0B5FA20283ED1204DFFF7B0FDDC
S3152000636005F580700DF078FD044690BB05F580702C
S3152000637003F0CEFB044660BB01A968460DF098FCED
S3152000638021462046DDE90023FFF7AAFF044600BB8D
S31520006390134E4FF480622846314612F096F805F5E2
S315200063A0807003F0B5FB044698B9E9680120DDE961
S315200063B00023FFF795FF044658B94FF4846231460F
S315200063C0084812F082F8012306F8023CFFF748FD40
S315200063D00446204602B070BD0124FAE7940321202A
S315200063E056BF202074FF20202DE9F04F3D4C85B06C
S315200063F08046B4F81290B4F810A0B9F1010F85BF09
S31520006400D4F8A8310AFB09F70123B7FBF3F301936C
S3152000641068B3354E40F21C41E56845F2E22BD4F8CC
S31520006420A821301DB5FBF2F710F07CF84FF48463F9
S3152000643030600293002126E0D4F8A0013A464FF4BA
S3152000644080617043FFF7D0FE00283BD14FF4806275
S315200064505946384612F029F8A0BB013556444D4519
S31520006460EAD34FF0000B584605B0BDE8F08F06463C
S3152000647005461E4FDFF86CB0F1E7C8190391FFF708
S3152000648037FD03990131019B9942F6D100274F45EB
S31520006490E9D2D4F8A001324602996843FFF73EFDBF
S315200064A050B1D4F8A801B5FBF0F0FFF721FD58460E
S315200064B0013755448346EAE7B8F1010F04BF0C4B78
S315200064C05870F5E74FF47F710A4810F02BF8002733
S315200064D04FF48063034E3D4645F2E12B2060029344
S315200064E0A8E700BF9403212074FF202056BF202058
S315200064F054BF2020980321202DE9F843254E3378D8
S31520006500002B3CD000293FD0DFF88C80441ED8F8E1
S31520006510A0510C44D8F8A821B0FBF5F7B4FBF5F44C
S31520006520B7FBF2F7B4FBF2F4C7F101031C44D8F829
S315200065304030B3FBF2F39F4228D30125D8E96B23E1
S3152000654002FB03F944B97378DBB10120BDE8F843B7
S31520006550FFF74ABF013C10E04F45F4D2D8F8A80116
S315200065607843FFF743FC40B93846FFF7C1FC0546A0
S315200065700028EFD03846FFF791FC0137E2E742F2D8
S31520006580DD752846BDE8F8830D46FAE745F2E32592
S31520006590F7E700BF54BF20209403212008B5074BFE
S315200065A0587810B10120FFF71FFF054B0022A3F5F5
S315200065B000511A725A618A7008BD00BF54BF20204C
S315200065C054FF20202DE9F743044680460AF0CEFAF0
S315200065D008B90420ECE004F2FF300AF0C7FA0028DC
S315200065E0F7D021460020FFF71BFC70B19C4B002200
S315200065F021469C481A704FF4806211F066FF9A4833
S3152000660003F086FA002877D0D2E0E37803F0F00290
S31520006610D02A40F0B7802379A679180714BF03F053
S315200066200F0701276378310714BF06F00F060126EE
S315200066309A07627814BF03F00303012363F3010270
S315200066406379012B627038BF0123637123785B075E
S3152000665000F0FA80082E00F2FA80814B0022814D4C
S315200066601A70FFF72DFC05F580700DF0F5FB00285C
S3152000667040F09E800523A5F85C0185F8090105F503
S31520006680807085F80C312378C3F3020385F85231E4
S315200066902378C3F3C00385F820312378C3F302138C
S315200066A0013385F853316378C3F30103DB0085F8A2
S315200066B021316378C3F3021385F83031A378C3F30D
S315200066C0000385F85531A378C3F3400385F8563186
S315200066D003F01EFA00286BD163792946D5F8A8C1A4
S315200066E007FB03F25200864234D10CFB03F36F8280
S315200066F02B827B436E61EB605A4901200B8A4A8AC2
S31520006700C968FFF7EDFD002800F09780574C4FF43D
S315200067108462FF210125204611F0E5FE544B40F20C
S315200067201C41201DC4E90135002323610FF0FAFE28
S3152000673020602846FFF758FE002839D10020FFF7B1
S3152000674053FEA8BB464B01221A7003B0BDE8F043A6
S31520006750FFF786BB20B1B8F80620B8F804402244DB
S31520006760B8F80A40083108F10408944272D3B8F800
S3152000677004E004FB0CF401300CFB0EFE8C63C1F824
S315200067803CE0B0E7B02A68D1354D2A78002A3FF49C
S3152000679020AFC3F3030603F00F03012B3FF619AF17
S315200067A005F5804563B920460AF00CF918B12E7616
S315200067B003B0BDE8F083A368EB6101232B769BE74A
S315200067C02B7E002B3FF405AF237803F00F03072B16
S315200067D03FF6FFAE234E083301A9684656F83380AC
S315200067E006EBC303D6F8A071D3F80490EC690AF03F
S315200067F01BF90028DCD1019B2344B3FBF7F3994511
S31520006800FFF4E7AE07FB08447B1E23427FF4E1AE8C
S31520006810012206F58070B4FBF7F110F0C4F948B9EF
S315200068202046DDE90021FFF74BFC0028C0D1FFF709
S31520006830D3FCE7E642F2DB70BAE74FF484620D49F7
S315200068400A4811F042FE79E745F2E420B0E745F226
S31520006850E520ADE745F2E620AAE745F2E020A7E7E6
S3152000686054BF2020940321209404212074FF20204B
S315200068705442424456BF20202DE9F041154FDFF8FF
S315200068805880D7E96B365E4398F80030F3B942F268
S31520006890DD742046BDE8F081D7F8A8016843FFF7EC
S315200068A0A5FA38B92846FFF723FB044610B1284637
S315200068B0FFF7F4FA0135B542EED198F80130002BF6
S315200068C0E7D00120BDE8F041FFF78EBD0025012469
S315200068D0F1E700BF9403212054BF2020002939D09E
S315200068E0102837D8DFE800F0091316233627363666
S315200068F036363636363636362E00174B1A7842F26C
S31520006900DD73002A08BF1846086000207047002063
S3152000691008607047114AD2E96B034343D2F8A801B5
S31520006920D2F8A021434353439B0A0B60EDE70B4B60
S31520006930D3F8A031F9E7094AD2F8A831D2F8A02134
S315200069405343F2E7054AD2E96B034343D2F8A80141
S315200069504343F3E70420704754BF202094032120AB
S31520006960034B1B780BB10FF0C3BD42F2DD707047AD
S31520006970940721200748D0F808314BB10022D0F8DF
S315200069800411C0E9412200F58672043002F072BD7E
S3152000699018467047940721202DE9F041244E0546DC
S315200069A00C4617463378002B3BD010F01CF858B312
S315200069B042F2DB7033E0D6E9413050EA030227D1B8
S315200069C096F82630DB08B5FBF3F203FB12535BBBCC
S315200069D0C6F8045103193946B3F5007F8CBFC0F5BC
S315200069E00078A04600F58670424647443044454428
S315200069F011F06BFDD6F80831A4EB08044344B3F537
S31520006A00007FC6F8083106D0002CD4D1204606E0F7
S31520006A1003449D42DED0FFF7ADFF0028F4D0BDE849
S31520006A20F08142F2DD70FAE742F2DE70F7E700BF4E
S31520006A309407212049B3102827D8DFE800F009134E
S31520006A40171D262126262626262626262626280001
S31520006A50114B1A7842F2DD73002A08BF18460860E7
S31520006A60002070470C4B5B690B60F9E70A4AD2E9B4
S31520006A702A3253439B0AF7E7074BD3F8A430F3E7B0
S31520006A80054BD3F8A830002BEED104207047024ADC
S31520006A90D2E92A325343E7E79407212007B5052098
S31520006AA06946FFF7C7FF01A91020FFF7C3FF064A73
S31520006AB0019993698B423EBF0099B3FBF1F3C2F86B
S31520006AC0AC3003B05DF804FB9407212038B50CF0F8
S31520006AD0F7FE102810D1094D281D0DF0CBFA0446DB
S31520006AE040B9281D02F08CFB044618B9FFF7D6FFE3
S31520006AF001232B70204638BD0124FBE79407212073
S31520006B002DE9F74306460AF031F808B90424C9E00E
S31520006B1006F1FF000AF02AF80028F7D03268844BE5
S31520006B209A4221D14FF480723146824811F0CDFC31
S31520006B30814E0023304600F8043B02F061FB0446F8
S31520006B40002840F0AF80FFF7A9FF01A91020756942
S31520006B50FFF770FF794B1D65019A15440122013D0F
S31520006B609A655D6532709DE0F37803F0F002D02AD5
S31520006B7040F082807378704D9A07727805F1040090
S31520006B8014BF03F00303012363F3010272700DF0B7
S31520006B9071FA0446002840F0858005232B741823BB
S31520006BA085F825303378C3F3010385F8563073789A
S31520006BB0C3F30103DB0085F826307378C3F3800323
S31520006BC085F82E307378C3F3021385F82C3033788A
S31520006BD0C3F38102022A85F85520A9D10146B2883D
S31520006BE0281D02F0E3FAF288214685F83C00281D8C
S31520006BF002F0DCFA3289214685F83D00281D02F094
S31520006C00D5FA7289214685F83E00281D02F0CEFA73
S31520006C10B289214685F83F00281D02F0C7FAF28A7C
S31520006C20214685F84000281D02F0C0FA328B01214A
S31520006C3085F84300281D02F0B9FAF289214685F825
S31520006C404400281D02F0B2FA328A214685F8450012
S31520006C50281D02F0ABFA728A214685F84100281DCC
S31520006C6002F0A4FAB28A85F842002146281D02F0D5
S31520006C709DFA85F846005BE7B02A55D12E4D2A7835
S31520006C80002A3FF443AFC3F3030703F00F03012B9E
S31520006C903FF63CAF8BB9304609F094FE044628B146
S31520006CA085F80C73204603B0BDE8F083B368C5F8B9
S31520006CB01033012385F80C33F4E795F80C33002BB9
S31520006CC03FF424AF33781B077FF420AF01A9684631
S31520006CD06E69D5F8A480D5E92A79D5F8105309F03C
S31520006CE0A3FE04460028DDD1019B09FB07F72B44B0
S31520006CF09F4210D3354408F1FF332B420ED1414633
S31520006D0028460FF070FE60B92846DDE90021FFF71E
S31520006D1043FE0446C6E742F2D874C3E742F2DE7465
S31520006D20C0E742F2DB74BDE745F27C24BAE700BF38
S31520006D3053454D439807212094072120F085202094
S31520006D402DE9F743204F05460C4690463B78ABB3DA
S31520006D507E6901A91020FFF76DFEB54231D3019B54
S31520006D601E442B199E422CD334B9184B40F2D31112
S31520006D70174A18480DF0B4F9002307F58672013337
S31520006D8042F8048B802BFAD14FF00008DFF84890A8
S31520006D90B4F5007F4A462846C7F8088134BF264600
S31520006DA04FF400763146FFF7F7FD20B9A41B354492
S31520006DB0EED1FFF7DFFD03B0BDE8F08342F2DD70D0
S31520006DC0F9E745F26D20F6E7940721205797012031
S31520006DD06F9801205D980120A00821202DE9F3411C
S31520006DE0174D04460E462B7823B36F696946052056
S31520006DF0FFF720FE01A91020FFF71CFEBC421CD382
S31520006E00019B04EB06083B44434516D316B10435D3
S31520006E10444503D3002002B0BDE8F081E31B00996E
S31520006E202846B3FBF1F102F0EFFB0028F3D1009BDB
S31520006E301C44EDE742F2DD70EDE745F26D20EAE70E
S31520006E4094072120064B13B55C6901A91020FFF792
S31520006E50F1FD01992046FFF7C1FF02B010BD00BF2A
S31520006E60940721200020014B986070478C802020B9
S31520006E702DE9F047224B8AB0224E804693F81874AB
S31520006E808A4693F81994144605AD0FCE0FC533687C
S31520006E901022002101A82B6011F025FB4FF480134E
S31520006EA0049344B90122384649460CF01FFC0020C1
S31520006EB00AB0BDE8F087032C01D10022F3E7012CAC
S31520006EC018D1CDF808800AABCDF80CA003EB8704C7
S31520006ED001A954F8140C0BF0ABFAB0F5C87FF7D023
S31520006EE00028E5D03846002249460CF0FFFB42F642
S31520006EF0CD10DDE7022C08BFCDF80480E3E700BF04
S31520006F008C802020C48701200B461146044A127823
S31520006F1012B11A4602F044B842F2DD70704700BF43
S31520006F208C80202030B5134CADF20C4D0023A26886
S31520006F30EAB1656804F10C0101922846C4E90133DF
S31520006F4002F04AF880B9019A02A9284602F028F8E8
S31520006F5050B9019A02A904F10C0011F0A6FA42F2E6
S31520006F60DF73002818BF18460DF20C4D30BD1046B1
S31520006F70FAE700BF8C8020202DE9F8431D4D0646F8
S31520006F800C4690462B7893B3D5F82874B7F5806FC6
S31520006F9028BF4FF480670CB9204626E0D5E90120AA
S31520006FA050EA02031AD16E600219974238BFA7EB46
S31520006FB0000900F10C0028BFA1462844404503D013
S31520006FC04A46414611F081FAAB68C8444E44A4EBC8
S31520006FD009044B449F42AB60DDD102E00244B24239
S31520006FE0E2D0FFF79FFF0028D5D0BDE8F88342F214
S31520006FF0DD70FAE78C8020200B4B1B7870B5054698
S315200070000E4673B102F026F8044640B931462846AA
S315200070100FF09BFA42F2DF73002808BF1C46204679
S3152000702070BD42F2DD74FAE78C8020202DE9F04312
S315200070308DB0054609F09AFD08B904201AE105F13C
S315200070402B0009F093FD0028F7D0EB7803F0F0022F
S31520007050C02A40F0FA80AE4C2C22002104F5826032
S3152000706011F041FAAB4BAC4AC4F810344FF48033DC
S31520007070AA49C4F81434AA4BC4F8303440F2056344
S31520007080A4F834342B7803F00F0352F82330A54AA2
S31520007090C4F828342B781B0952F823306A78C4F8B0
S315200070A02C3402F00F0251F822106A78C4F8241406
S315200070B0C2F303101209012A18D0022A2ED0002268
S315200070C06020B1F1807F84F8202484F8380432D8F7
S315200070D01822B3F5803F84F821244FF0420284F829
S315200070E036241ED3D82384F8373407E0B1F5803F01
S315200070F084F820040BD8102384F82134AB781B099C
S31520007100013B032B49D8DFE803F02D424446B1F179
S31520007110807F01D81823EFE72023EDE784F82004A9
S31520007120ECE7B3F5805F01D12023DCE7B3F5004F10
S31520007130E4D15223D7E72021B3F5803F84F83624C3
S3152000714084F821144FF0120184F831144FF0130102
S3152000715084F8321401D3DC23C5E7B3F5805FCDD1A3
S315200071602123C0E7012384F81834AB78C3F3030244
S3152000717003F00F03022B03D0032B01D0012B0ED1DA
S3152000718084F81924EB781A070DD1674B15E00223F2
S31520007190E9E70323E7E70423E5E70023E3E7002302
S315200071A084F81934EEE72B7903F00F03022B48D02D
S315200071B0032B48D0012BE8D15C4BC4F81C34544C2B
S315200071C04FF000085A4E6D4694F8187404F5836003
S315200071D0D4F81C9484F800800CF0B4FA38460CF0ED
S315200071E067FA384653490CF09BFA0FCE0FC5336821
S315200071F01C22414605A82B6011F075F9082305A924
S315200072004C4A06934C4BCDF81490ADF81C808DF863
S315200072101E80B3FBF9F3CDE908330A9302230B93BF
S315200072200CAB03EB870757F8300C0BF031F8D4F88A
S315200072300C1404F5846001F077FED8B9012323707D
S3152000724018E03E4BB9E73E4BB7E7B02A50D1304C59
S315200072502278002A3FF4F1AEC3F3030603F00F03AE
S31520007260012B3FF6EAAE7BB9284609F0ABFB20B1ED
S3152000727084F83C640DB0BDE8F083AB68C4F84034B4
S31520007280012384F83C34F5E794F83C34002B3FF492
S31520007290D4AE2B781B077FF4D0AE05A96846D4F868
S315200072A02464D4F82854D4F8404409F0BDFB0028BF
S315200072B0E0D1059B23449E4217D36B1E234211D156
S315200072C0294620460FF041F948B1009A20460599F3
S315200072D0FFF752FE0028CDD1FFF724FECAE742F27F
S315200072E0DB70C7E742F2DE70C4E742F2D870C1E72E
S315200072F02A68084B9A427FF4A0AE2C22002111481E
S3152000730011F0F1F82C2229460E4811F0DEF856E746
S315200073108C8020206B73656310852020D0842020EC
S315200073200102030428852020002D31018096980033
S31520007330C4870120005A620200CA9A3B404B4C0087
S3152000734080841E009C84202038B50A4D2B7873B18A
S3152000735001F0C6FE044640B9D5F824140FF0F5F81E
S3152000736042F2DF73002808BF1C46204638BD42F291
S31520007370DD74FAE78C80202059B3102829D8DFE85D
S3152000738000F009131B162028282828282828282812
S3152000739028282400104B1A7842F2DD73002A08BFF1
S315200073A018460860002070470020086070470A4B86
S315200073B0D3F828340B60F5E7074BD3F824349B0A1F
S315200073C0F8E7054BD3F82C34F4E7034BD3F82434F1
S315200073D0F0E70420704700BF8C802020084B002255
S315200073E01969203310B5914201D1002010BD53F800
S315200073F0044B844201D00132F5E70120F6E700BFB5
S31520007400DC2A21202DE9F74F80460D4616465AB133
S31520007410DFF88090DFF878B009F5807A5DB92C46E0
S31520007420204603B0BDE8F08F164B4FF4BC61164AD8
S3152000743016480CF055FED9F8C072334642465146DE
S31520007440AF424FF0000028BF2F46009710F012FAE7
S3152000745004460028E4D10E4B42465146009707F0D9
S3152000746073FF04460028DBD13A465946304611F0D0
S315200074701CF820B93E44ED1B08F10108CEE7012493
S31520007480CEE700BF739701209298012081980120B2
S31520007490BC0A2120FC2E212002460249002010F0A1
S315200074A087B900BFFC2F21202DE9F84F204C00265C
S315200074B0B4F81280B4F81090D4F8C87209FB08F515
S315200074C0E368B5FBF7F5B3FBF7F7B0B201368542B3
S315200074D014D8184E40F21C414FF0000B44F6296791
S315200074E0301DDFF854A00FF055F8E56830601FFA1C
